:020000040800F2
:10000000D00A00209D0100087F1E0008911A0008F8
:100010007D1E0008D502000813290008000000001A
:100020000000000000000000000000007D2100082A
:100030003D03000800000000811E00087F21000829
:10004000B7010008B7010008B7010008B7010008B0
:10005000B7010008B7010008B7010008B7010008A0
:10006000B7010008B7010008B7010008B701000890
:10007000B7010008B7010008B7010008B701000880
:10008000B7010008B7010008B7010008B701000870
:10009000B7010008B7010008B70100086D030008A8
:1000A000B7010008B7010008B7010008B701000850
:1000B000B7010008B7010008B7010008B701000840
:1000C000B7010008B7010008B7010008B701000830
:1000D000B7010008B7010008B7010008B701000820
:1000E0003F030008B7010008B7010008B701000886
:1000F000B7010008B7010008B7010008B701000800
:10010000B7010008B7010008B7010008B7010008EF
:10011000B7010008B7010008B7010008B7010008DF
:10012000B7010008B7010008B7010008B7010008CF
:10013000B7010008B7010008B7010008B7010008BF
:10014000B7010008B7010008B7010008B7010008AF
:10015000B7010008B7010008B7010008B70100089F
:10016000B7010008B7010008B7010008B70100088F
:10017000B7010008B70100080000000000000000FF
:10018000B7010008B7010008DFF80CD000F090F8C4
:100190000048004755290008D00A0020064880473B
:1001A00006480047FEE7FEE7FEE7FEE7FEE7FEE75C
:1001B000FEE7FEE7FEE7FEE73122000889010008BE
:1001C0002DE9F05F0546002092469B46884606468C
:1001D000814640241BE0284641464746224600F01F
:1001E00056F853465A46C01A914110D31146184644
:1001F000224600F03DF82D1A67EB01084F462246D3
:100200000120002100F034F817EB00094E41201EB8
:10021000A4F10104DFDC484631462A46434600F09B
:1002200000B830BCBDE8C09F40EA01039B0703D083
:1002300009E008C9121F08C0042AFAD203E011F825
:10024000013B00F8013B521EF9D27047D2B201E0E7
:1002500000F8012B491EFBD270470022F6E710B5CB
:1002600013460A4604461946FFF7F0FF204610BD24
:10027000202A04DB203A00FA02F100207047914066
:10028000C2F1200320FA03F3194390407047202A5B
:1002900004DB203A21FA02F00021704721FA02F330
:1002A000D040C2F120029140084319467047000037
:1002B000064C074D06E0E06840F0010394E80700B3
:1002C00098471034AC42F6D3FFF762FFEC290008E0
:1002D0000C2A0008FEE700001749884201D10020DF
:1002E000704715492031884201D1012070471249D9
:1002F0004031884201D1022070470F496031884265
:1003000001D1032070470C498031884201D104207B
:1003100070470949A031884201D10520704706493C
:10032000C031884201D1062070470349E03188423C
:10033000D5D107207047000000600140704710B51C
:100340004FF4806000F0E6F84FF4006000F0E2F84F
:100350004FF4005000F0DEF84FF4804000F0DAF87F
:10036000BDE810404FF4004000F0D4B810B5202094
:1003700000F0D0F8402000F0CDF8802000F0CAF85E
:10038000BDE810404FF4807000F0C4B870B50400B0
:1003900006D02068FFF7A0FF374D55F8200008B1C0
:1003A000012070BD204600F06FF834480168491CF8
:1003B000016000683249012819D13248026822F0F0
:1003C000804202600268A3681A430260026822F455
:1003D0007F0202602279012A05D10268A38901EB1C
:1003E00003431A430260026842F000420260206840
:1003F000026822F47142026022681068236918437F
:10040000D4E905363343184310602068026822F0AF
:100410000F020260D4E907200243206803681A43F0
:1004200002602068826822F45F028260206882682D
:10043000636A1A43238D01EB03410A4382602068FB
:10044000416801F007014160E06A216B000240EA67
:10045000C10120684268114341602068016841F091
:1004600080010160012084F834002068FFF734FF28
:1004700045F82040002070BDB00600200400002098
:100480000000FFFF0060014000B587B014216846FE
:10049000FFF7E3FE1248006800281ED11148016EE4
:1004A00041F080710166016E01F080710591C16CAF
:1004B00041F01001C164C06C694600F01000059065
:1004C0004FF42070009002200190002002900390D1
:1004D00006200490044800F029F807B000BD000091
:1004E00000000020001002400010004870B50446D3
:1004F00000F006F90546601C02D004484068044438
:1005000000F0FEF8401BA042FAD370BD08000020A6
:1005100070470000044910B50A68024202D0086022
:10052000FFF7F6FF10BD0000140401402DE9F84F5D
:10053000DFF898B100234FF0010C4FF0030A4FF0A1
:100540000F090BF1040EB9E00CFA03F4224070D04D
:100550004D68022D01D0122D0ED1DD0800EB85086B
:10056000D8F820505E07F70E09FA07F6B5430E6972
:10057000BE402E43C8F8206007685E0091F80480F2
:100580000AFA06F508F00308AF4308FA06F848EA45
:100590000708C0F800804F68012F05D0022F03D054
:1005A000112F01D0122F13D1D0F80880CF6828EA7C
:1005B0000508B74047EA08078760D0F804800F793C
:1005C00028EA0408C7F300179F4047EA0807476076
:1005D000D1F804806FEA0807BF0706D1C76AA743AE
:1005E000C8F3C0049C403C43C462C468AC438D68FB
:1005F000B5402543C5604C68E4005ED5344C256E9B
:1006000045F001052566246E23F0030504F001047E
:100610000094304C2E19B4689D072F0F09FA07F586
:10062000AC43B0F1904F05D02B4DA84204D1012529
:100630001CE042E0002519E0284DA84201D1022526
:1006400014E0274DA84201D103250FE0254DA84213
:1006500001D104250AE0244DA84201D1052505E079
:10066000224DA84201D1062500E00725BD402543C3
:10067000B560DBF800405D464E689443F60300D554
:1006800014432C60DEF8004075464E689443B60370
:1006900000D514432C600D4D08352C684E689443EA
:1006A000F60200D514432C60084D0C352C684E68BA
:1006B0009443B60200D514432C605B1C0A6832FADE
:1006C00003F57FF441AF00F013B8000000040140CF
:1006D00000100240000001400004004800080048EB
:1006E000000C0048001000480014004800180048A2
:1006F00018BCBDE8E08F0AB1816170478162704724
:1007000001488068704700000800002090F84120F0
:10071000202A24D190F84020012A20D0012280F8FC
:100720004020242280F841200268136823F001034E
:1007300013600268136823F480531360026813681F
:100740000B43136001680A6842F001020A6020212D
:1007500080F84110002180F84010084670470220C0
:10076000704790F84120202A22D190F84020012A99
:100770001ED0012280F84020242280F84120026807
:10078000136823F0010313600268136823F4706395
:1007900043EA0121116001680A6842F001020A601F
:1007A000202180F84110002180F840100846704751
:1007B0000220704770B5040004D094F84100002571
:1007C00010B106E0012070BD84F84050204600F0D2
:1007D0004DF8242084F841002068016821F00101CF
:1007E00001606068216820F070600861206881689D
:1007F00021F400418160E0680128A06807D040F43E
:10080000044021688860E068022803D006E040F4D4
:100810000040F6E721684FF40060486020684168B6
:10082000114A114341602068C16821F40041C16050
:10083000D4E904010843A16940EA01202168C860A5
:10084000D4E907010843216808602068016841F085
:10085000010101606564202084F84100256384F86B
:100860004250002070BD00000080000210B586B02C
:10087000044614216846FFF7F0FC134920688842BB
:100880001FD1124CE06C40F00200E064E06C69465D
:1008900000F0020005904FF440600090122001909B
:1008A0000120029003200390042004900848FFF7E1
:1008B0003DFEA06D40F48000A065A06D00F48000B6
:1008C000059006B010BD0000005800400010024026
:1008D0000004004802488168426811448160704702
:1008E0000800002010B50024032000F071F800205B
:1008F00000F008F808B1012401E000F025F82046D6
:1009000010BD000070B50E4E05460024706898B109
:100910004FF47A71B1FBF0F00A490968B1FBF0F0CD
:1009200001F01AF840B9102D06D200222946501EB7
:1009300000F02EF8356000E00124204670BD000074
:100940000800002014000020094808B5016E41F09D
:1009500001010166016E01F001010091816D41F01C
:1009600080518165806D00F08050009008BD0000CE
:1009700000100240002809DB00F01F020121914015
:100980004009800000F1E020C0F80011704700002D
:10099000F0B40E4B1B680C46C3F30223C3F10705EA
:1009A000042D00D90425191D072901D2002300E0D8
:1009B000DB1E012606FA05F1491E214099409E40A2
:1009C000761E16403143F0BC01F0A4BF0CED00E0F0
:1009D000064900F0070208684FF6FF03184040EA96
:1009E0000220034A10430860704700000CED00E04D
:1009F0000000FA0501220168C0F8FC23002280F8FB
:100A0000F423886940F000608861486D024A104311
:100A10004865002070470000030000102DE9F041F8
:100A20008AB0040005D094F8BD032668002520B1E3
:100A300008E001200AB0BDE8F08184F8BC532046EC
:100A400000F064F8032084F8BD03F06BC00500D407
:100A50002561206801F01DFF04F11001282288465D
:100A60006846FFF7E1FB94E80F0001F013FE022651
:100A7000C8BB0021206801F035FF002001270EE0EF
:100A8000C0EBC00104EB810181F83D7001F83C0F1F
:100A9000C880CD708D60CD60401CC0B24D61616872
:100AA0008142EDD8002011E0C0EBC00104EB8101D0
:100AB00081F8FD5181F8FC0181F8FF51C1F8045221
:100AC000C1F80852401CC0B2C1F81052616881429E
:100AD000EAD8282241466846FFF7A6FB94E80F00B3
:100AE00001F030FE10B184F8BD63A2E784F83850FD
:100AF00084F8BD73606A012802D12046FFF77AFFAF
:100B0000206801F013FE002094E7000070B586B065
:100B1000044614216846FFF7A0FB2068B0F1A04FFF
:100B20003AD1204CE06C40F00100E064E06C00251C
:100B300000F0010005906015CDE900054FF09046EA
:100B4000694630460295FFF7F1FC4FF4E050009003
:100B50000220CDE90105032003900A200490694694
:100B60003046FFF7E3FCE06C40F48050E064E06C5A
:100B700000F480500590A06DC0000FD4A06D40F02F
:100B80008050A065A06D00F08050059000F040F806
:100B9000A06D20F08050A06506B070BD00F038F860
:100BA000FAE70000001002401649B0F5007F08681F
:100BB000C0F3412009D0022805D0086820F4C060A5
:100BC00040F480600860002070470128FBD008686E
:100BD00020F4C06040F4007008600B4832220068C6
:100BE00050430A4AB0FBF2F0401C00E0401E4A6944
:100BF000520501D50028F9D148694005E3D5032005
:100C000070470000007000401400002040420F00B8
:100C10000248416841F480614160704700700040C3
:100C20000248006800F4C060704700000070004097
:100C30000248016841F48071016070470070004013
:100C4000F8B50446FFF75CFD06465CB194F8380041
:100C5000012809D0012784F8387094F8390000255C
:100C600020B10BE00120F8BD0220F8BD84F8385017
:100C7000204600F03DF841F2883020642068016889
:100C8000A2686FF0FF0321F4706103EB02221143AD
:100C90000160206C0090334600222021204601F0A4
:100CA000F0F8E8B921680A680F4B1A40237942EA44
:100CB0000362E3681A430A60D4E90512114322680B
:100CC00053680A4E3340268A43EA0643194351606B
:100CD00021680A6842F001020A60E56384F839700D
:100CE00084F83850F8BD0000EFFFFF00FEF8E0FF89
:100CF00010B586B0044614216846FFF7AEFA1349D2
:100D0000206888421FD11248016D41F4807101654D
:100D1000016D01F480710591C16C41F01001C16455
:100D2000C06C694600F0100005904FF47C400090C4
:100D30000220019000200290032003900A200490DA
:100D40000448FFF7F3FB06B010BD0000001000A040
:100D500000100240001000480248016841F0040100
:100D600001607047001002402DE9F84F044600274B
:100D70000088E54D3E46010504F1200B1DD5606E4F
:100D800078B1B0F5800F11D0B0F5000F04D0B0F5F8
:100D9000400F22D001270FE0E86840F48030E8607F
:100DA0001BE00021201D01F091F803E000215846CE
:100DB00001F022F9070010D03E462088C00426D555
:100DC000A06EC0B1B0F1807F1AD0B0F1007F0DD01D
:100DD000B0F1407F19D0012718E0D5F88800616E86
:100DE00020F440000843C5F88800E6E7E86840F4CE
:100DF0008030E86009E00021201D01F067F803E081
:100E00000021584601F0F8F80746F7B13E46206841
:100E100080033AD5A86D4FF00008C00009D4A86D32
:100E200040F08050A865A86D4FF0010800F0805098
:100E30000090DFF8D8A2DAF8001041F48071CAF807
:100E40000010FFF75DFC814610E0D5F88800A16E28
:100E500020F040700843C5F88800D8E7FFF750FC41
:100E6000A0EB0900022801D9032705E0DAF8000009
:100E7000C005F3D5002F7CD04FEA0706B8F1000F6C
:100E800003D0A86D20F08050A8652078C00707D057
:100E9000D5F88800A16B20F003000843C5F888004E
:100EA0002078800707D5D5F88800E16B20F00C008A
:100EB0000843C5F888002078400707D5D5F8880092
:100EC000216C20F030000843C5F888002078000726
:100ED00007D5D5F88800616C20F0C0000843C5F83C
:100EE00088002078C00607D5D5F88800A16C20F4CA
:100EF00040700843C5F888002078800607D5D5F8EB
:100F00008800E16C20F440600843C5F88800208820
:100F1000800507D5D5F88800E16D20F4402008430E
:100F2000C5F888002088400507D5D5F88800216ECF
:100F300020F440100843C5F888002078400607D503
:100F4000D5F88800216D20F440500843C5F888008A
:100F50002078000607D5D5F88800616D20F4404060
:100F60000843C5F888002088C00509D5D5F8880051
:100F700000E01CE0A16D20F440300843C5F8880073
:100F800020884FF0006780044FF080684FD5D5F877
:100F90008800E16E20F040600843C5F88800E06EEC
:100FA000B8423CD1E86840F48010E8603FE0D5F8F2
:100FB000900010F4407015D0D4F88410814211D004
:100FC000D5F89000D5F8901020F4407041F48031AD
:100FD000C5F89010D5F8901021F48031C5F8901024
:100FE000C5F89000C00710D0FFF78AFB074641F212
:100FF000883906E0FFF784FBC11B494501D9032668
:101000003CE7D5F890008007F4D5D5F89000D4F8E7
:10101000841020F440700843C5F890002EE7404546
:1010200005D10121201D00F051FF00B106462068C6
:10103000000317D5D5F88800216F20F040600843E1
:10104000C5F88800206FB84204D1E86840F48010E9
:10105000E86007E0404505D10121201D00F036FF82
:1010600000B106462068400317D5D5F88800616FA7
:1010700020F040600843C5F88800606FB84204D192
:10108000E86840F48010E86007E0404505D10121A0
:10109000201D00F01BFF00B10646208840041AD531
:1010A000D5F88800A16F20F040500843C5F88800AB
:1010B000A06FB0F1805F03D0B0F1005F05D00AE00F
:1010C0000221201D00F002FF03E00221584600F03B
:1010D00093FF00B106462088000407D5D5F88800A4
:1010E000E16F20F080400843C5F888002068C00305
:1010F00007D555F8880FD4F8801020F00040084339
:101100002860304600F004B8001002400070004033
:1011100018BCBDE8E08F00002DE9F0470F46050040
:1011200058D0404E306800F00700B84209D230680D
:1011300020F0070038433060306800F00700B84204
:1011400048D12878384CC0072CD06868032811D0C3
:10115000022812D0216898B1490500293ADAA1681D
:1011600021F003010143A160FFF7CAFA804641F272
:10117000883910E021688901EFE721688903ECE7ED
:101180008907EAE7FFF7BCFAA0EB0801494502D955
:101190000320BDE8F087A068696800F00C00B0EBA0
:1011A000810FEFD12878800705D5A068A96820F0C5
:1011B000F0000843A060306800F00700B8420BD987
:1011C000306820F0070038433060306800F00700D6
:1011D000B84201D00120DCE72878400705D5A06897
:1011E000E96820F4E0600843A0602878000706D58D
:1011F000A068296920F4605040EAC100A06000F0B6
:101200003FF8A168094AC1F30311515C01F01F01C5
:10121000C8400749086007480068BDE8F047FFF785
:1012200071BB00000020024000100240A429000809
:10123000140000200800002005480649006889685D
:10124000054AC1F30221515C01F01F01C8407047FB
:101250001400002000100240E42900080548064957
:1012600000688968054AC1F3C221515C01F01F0181
:10127000C84070471400002000100240E429000814
:1012800070B52549002318468A68CC6812F00C0214
:1012900004F00306214C4FEA640509D00C2A05D05E
:1012A000042A32D0082A00D1284670BD012E10D160
:1012B0000B681B0704D4D1F89430C3F3032302E076
:1012C0000B68C3F30313164E56F82330DAB10C2A19
:1012D000EBD1C86800F00300022818D0032818D00A
:1012E0001846CA68CB68C2F30212C3F3062343430D
:1012F000521CB3FBF2F2C868C0F34160401C4000CE
:10130000B2FBF0F070BD184670BD204670BD20469F
:10131000E7E72846E5E70000001002400024F4005B
:10132000B42900082DE9F84304006ED0FD4DA868EB
:1013300000F00C06E86800F003072078C00663D5CB
:1013400076B10C2E01D1012F0AD0A069002828689F
:1013500078D040F001002860FFF7D2F980465BE0CA
:101360002868800702D5A0690028DED0216A286895
:10137000000703D5286800F0F00004E0D5F89400D9
:10138000F02202EA1010814216D9084600F0B8FE99
:1013900000283AD1286840F0080028602868216AAF
:1013A00020F0F000084328606868E16920F47F407D
:1013B00040EA0120686015E0286840F008002860D5
:1013C0002868216A20F0F000084328606868E16915
:1013D00020F47F4040EA01206860206A00F090FE1F
:1013E0000028D6D1FFF74CFFA968CF4AC1F30311FB
:1013F000515C01F01F01C840CC490860CC4800682E
:10140000FFF780FA00287DD12DE0C9E0FFF778F9D9
:10141000A0EB0800022876D828688007F6D528684F
:1014200040F0080028602868216A20F0F000084396
:1014300028606868E16920F47F4040EA0120686024
:1014400011E0FFE720F001002860FFF759F980461E
:1014500006E000BFFFF754F9A0EB08000228DAD835
:1014600028688007F6D42078C00740D0082E18D00E
:101470000C2E01D1032F14D06068B0F5803F17D037
:10148000B0F5A02F286817D020F480302860286895
:1014900020F4802028606068E0B1FFF731F98046D1
:1014A00014E02868800322D56068002878D01EE008
:1014B000286840F48030EDE740F480202860F7E7AA
:1014C000FFF71EF9A0EB08006428A4D82868800361
:1014D000F6D50CE0FFF714F9804605E0FFF710F9A8
:1014E000A0EB0800642896D828688003F6D42078FA
:1014F00080073BD5042E11D00C2E01D1022F0DD028
:10150000E06801E03EE19FE0002828681ED040F43A
:1015100080702860FFF7F4F807460CE02868400563
:101520000CD5E0680028C1D008E000BFFFF7E8F85C
:10153000C01B022893D828684005F7D56868217C2D
:1015400020F0F85040EA016068600FE020F48070FD
:101550002860FFF7D5F8074605E000BFFFF7D0F891
:10156000C01B022870D828684005F7D420780007EF
:1015700029D560690028D5F8940012D040F0010008
:10158000C5F89400FFF7BCF8074604E0FFF7B8F889
:10159000C01B022858D8D5F894008007F6D512E071
:1015A00029E120F00100C5F89400FFF7A9F80746EB
:1015B00005E000BFFFF7A4F8C01B022844D8D5F807
:1015C00094008007F6D42078400768D5A86D0027DE
:1015D000C00008D4A86D40F08050A865A86D012710
:1015E00000F08050009053480168C90512D401688A
:1015F000814641F480710160FFF782F8804605E082
:10160000FFF77EF8A0EB080002281DD8D9F80000EB
:10161000C005F5D5A068012817D00528D5F8900099
:1016200018D020F00100C5F89000D5F8900020F007
:10163000040000BFC5F89000A06841F28839D0B11D
:10164000FFF75EF8804611E06BE0D5F8900040F0BF
:101650000100EFE740F00400C5F89000F5E700BF97
:10166000FFF74EF8A0EB080149455AD8D5F890008D
:101670008007F5D50EE0FFF743F8804606E000BF8F
:10168000FFF73EF8A0EB080149457AD8D5F890005D
:101690008007F5D41FB1A86D20F08050A865A06A1E
:1016A000F0B30C2E75D00228286820F080702860D6
:1016B00004D0286810F0205F51D054E0FFF720F8E4
:1016C000064604E0FFF71CF8801B022859D828685A
:1016D0008001F7D4D4E90B016FF00F0202EB011186
:1016E0000843A18F5204490802EB4151626B41EA61
:1016F0000221084394F840104FF07E42490802EB63
:1017000041610843A16B090940EA4140E9680A4A7E
:1017100011400843E860286840F0807028600DE0C0
:101720006BE02EE000100240A42900081400002005
:1017300008000020007000408C809DF9E86840F0AF
:101740008070E860FEF7DCFF044604E0FEF7D8FF97
:10175000001B022815D828688001F7D54DE0E868FD
:1017600020F00300E860E86825490840E860FEF7DB
:10177000C7FF044609E000BFFEF7C2FF001B0228B6
:1017800003D90320BDE8F88303E028688001F3D47F
:1017900033E00128F6D0E868E26A00F003019142E4
:1017A00029D1216B00F0700209011039914222D138
:1017B000626B00F4FE41B1EB022F1CD1A26B00F46E
:1017C0000031072A01D0012200E00022914212D10B
:1017D000A18F00F4C00249084905A1F5001191420A
:1017E00009D194F8401000F0C06049084906A1F101
:1017F0000071814201D00120C4E70020C2E700004F
:10180000FFFFEEFE2DE9F041040005D00025A562A2
:1018100094F85D0018B107E00120BDE8F08184F87C
:101820005C50204600F044F8022384F85D302068C4
:10183000016821F040010160E0684FF4E066B042C9
:1018400001D9002101E04FF48051B0F5706F02D052
:10185000B04200D0A562276B012227B9B04201D95E
:10186000236300E02263D4E901031843D4E904367A
:1018700033431843238B03F400731843E36918437D
:10188000236A1843A36A184323681860636B606A6D
:10189000A66918430427E36807EA1646334318434A
:1018A000084321684860256684F85D200020B4E77D
:1018B00030B587B0044614216846FEF7CEFC246894
:1018C000214D0021214802220323AC421AD1046E8B
:1018D00044F480540466046E04F480540594C46C8B
:1018E00044F00104C464C06CCDE9021300F00100AF
:1018F0000590E020CDE900020520049069464FF0F4
:1019000090401CE0124DAC421BD1846D44F4004465
:101910008465846D04F400440594C46C44F00404AC
:10192000C464C06CCDE9021300F0040005904FF4CC
:10193000E050CDE900020620049069460548FEF714
:10194000F5FD07B030BD000000300140001002403E
:10195000003C00400008004810B5401EB0F1807FF8
:1019600001D3012010BD4FF0E02460610F2160170A
:1019700000F0D0FF0020A06107202061002010BDF2
:1019800010B5040002D0606F10B107E0012010BD57
:10199000002084F87000204600F026F824206067BC
:1019A0002068016821F001010160204600F0F2FC8E
:1019B0000128ECD0606A10B1204600F05BFC206882
:1019C000416821F4904141602068816821F02A013A
:1019D00081602068016841F0010101602046BDE896
:1019E000104000F0ABBC000070B586B00446142176
:1019F0006846FEF732FC214E25680021204802226D
:101A000003230724B54218D1056E45F480450566C9
:101A1000056E05F480450595C56C45F00205C56465
:101A2000C06C02AD00F00200059085E81A00C020ED
:101A3000CDE90002694613481BE0134EB5421AD1A6
:101A4000856D45F480258565856D05F480250595B2
:101A5000C56C45F00805C564C06C02AD00F0080017
:101A6000059085E81A004FF44070CDE90002694600
:101A70000648FEF75BFD06B070BD0000003801406F
:101A8000001002400004004800480040000C0048DC
:101A9000FEE700000B480A490122016002710021A3
:101AA0000223C0E9021313020161C0E905130423F4
:101AB000C0E90713C0E90912C1620163FEF766BC01
:101AC00020600140180000202DE9F04F87B014215C
:101AD0006846FEF7C2FB8F48C16C41F01001C1643B
:101AE000C16C01F010010591C16C41F00401C164A9
:101AF000C16C01F004010591C16C41F00101C164A8
:101B0000C16C01F001010591C16C41F00201C16499
:101B1000C16C01F002010591C16C41F00801C16482
:101B2000C06C7D4F00F00800059000224FF48A71D0
:101B30003846FEF7E0FD48F2041B002259464FF0FC
:101B40009040FEF7D8FD00224FF214017348FEF7D3
:101B5000D2FD002241F281017148FEF7CCFD012245
:101B6000560331466E48FEF7C6FD002279156D48D2
:101B7000FEF7C1FD012220216848FEF7BCFD0122CD
:101B800011463846FEF7B7FD40F2151000900125CA
:101B90000024CDE90154694638460394FEF7C6FC9B
:101BA000DFF884816A20CDE900086946029438464E
:101BB000FEF7BCFC5D480096CDE901046946594832
:101BC000FEF7B4FC3F204FF00B09CDE90009694650
:101BD00002945448FEF7AAFC03270226CDE90076BA
:101BE00002AA4FF0080A82E8900469464FF090403C
:101BF000FEF79CFCCDF800B0CDE9015469464FF0EA
:101C000090400394FEF792FCCDF800A0CDE901646A
:101C100069464FF09040CDE90345FEF787FC102060
:101C2000CDE90009694602944FF09040FEF77EFC32
:101C30000095CDE9018469463848FEF777FC0096A7
:101C4000CDE9019469463548FEF770FC4FF2340047
:101C50000090CDE90154694630480394FEF766FCD4
:101C60004CF60440CDE90008694602942C48FEF782
:101C70005DFC43F281000090CDE90154694628489B
:101C80000394FEF753FC4FF410700090CDE901541B
:101C9000694624480394FEF749FCF801CDE90008A1
:101CA000694602941F48FEF741FC05200096CDE9E5
:101CB0000370CDE9016469461948FEF737FC7820C6
:101CC000CDE9000602940720CDE903706946144867
:101CD000FEF72CFC3802009001A9122081E8A10037
:101CE0000420049069460D48FEF720FC00221146AE
:101CF0001720FEF74DFE1720FEF73CFE002211468E
:101D00002820FEF745FE2820FEF734FE07B000F03D
:101D10000FB8000000100240001000480004004806
:101D2000000C0048000800480000111000002110BD
:101D300030BCBDE8C08F00000E4810B50C490160F2
:101D40000D49416000210122C0E902120161416197
:101D50008161C1610162FEF72DFD00210548FEF79A
:101D6000D5FCBDE8104000210248FEF7FABC000097
:101D70000058004050000020EC9C90100E480D4987
:101D80004FF4E06201604FF4827141600021C0E9CC
:101D900002124FF400720161C0E905120822C0E985
:101DA000072107224162C0E90A1201634163FFF77C
:101DB00029BD000000300140E00000200E480D4920
:101DC0004FF4407201604FF4827141600021C0E91C
:101DD00002124FF400720161C0E90512C161016293
:101DE00007224162C0E90A12016308214163FFF73B
:101DF00009BD0000003C004044010020094808499A
:101E000001604FF4E1314160002181600C22C1602A
:101E1000C0E904128161C16101624162FFF7B0BD96
:101E200000380140A80100200948084901604FF42A
:101E3000E1314160002181600C22C160C0E90412DF
:101E40008161C16101624162FFF79ABD00480040B3
:101E50002802002008484FF0A0410160062141609F
:101E60000221C16081610021C16101624162816220
:101E70000163C162FEF7D2BDA8020020FEE77047F1
:101E800070472DE9F041984616460F460446069DD8
:101E900008E0681C06D0FEF733FCA0EB0800A8425F
:101EA0000AD84DB120688068384000D00120B04287
:101EB000EFD10020BDE8F081042084F83900E06B08
:101EC00040F00100E0630120F4E700002DE9F0415B
:101ED000444C05468846E0680026810728680DD0F6
:101EE000E16801F00301814216D1A8B1E068696898
:101EF000C0F30210401C88420ED120E0012804D01B
:101F0000022805D0032807D108E02168890701E0ED
:101F100021684905002907DB01265FE02168890364
:101F200002D421684903F5E7E1686A686FF00F039E
:101F300021F0730103EB021211430143E1602068B9
:101F400020F080602060FEF7DBFB074605E000BF65
:101F5000FEF7D6FBC01B022837D820680001F7D453
:101F6000B8F1000F18D0B8F1010F1ED0287D4FF046
:101F70007E41400801EB4060A96840EA01202169E8
:101F8000194A114008432061206840F080602060B9
:101F9000FEF7B6FB07461AE0A868E96800020909DF
:101FA00040EA41402169114AEBE7288A104940087C
:101FB00001EB4050A96840EA012021690D4AE0E7A1
:101FC000FEF79EFBC01B022801D9032606E020680D
:101FD0000001F5D52069A969084320613046BDE8B4
:101FE000F081000000100240FF80FFF9FF80FDFF3C
:101FF0000000E0FFFF809FFF2DE9F0413D4C0646C9
:102000008846E0680025810730680DD0E16801F05E
:102010000301814216D1A8B1E0687168C0F30210D3
:10202000401C88420ED120E0012804D0022805D0AF
:10203000032807D108E02168890701E021684905E4
:10204000002907DB012551E02168890302D42168BA
:102050004903F5E7E16872686FF00F0321F073013F
:1020600003EB021211430143E160206820F080502D
:102070002060FEF745FB074605E000BFFEF740FB8A
:10208000C01B022829D820688000F7D4B8F1000FBF
:1020900015D0307C4FF07E41400801EB4060B168C4
:1020A00040EA01206169144A1140084360612068D8
:1020B00040F080502060FEF723FB07460FE0B06839
:1020C000F1680002090940EA414061690B4AEBE707
:1020D000FEF716FBC01B022801D9032506E0206885
:1020E0008000F5D560697169084360612846BDE8E4
:1020F000F081000000100240FF80FFF9FF80FDFF2B
:10210000F8B51C4D06460024A86DC00002D5FEF7A8
:1021100087FD0DE0A86D40F08050A865A86D00F027
:1021200080500090FEF77CFDA96D21F08051A965DB
:10213000B0F5007F04D0802E07D94FF003040AE0E9
:10214000802E08D9A02E01D804E001D1022402E09B
:10215000702E00D101240848016821F007012143B5
:102160000160006800F00700A04201D00120F8BD26
:102170000020F8BD00100240002002407047FEF72A
:10218000A9BB0000F0B5B9B0442122A8FEF765F85C
:10219000142133A8FEF761F888216846FEF75DF840
:1021A000FEF746FD204850F8901F21F0180101600D
:1021B00014200125002424952290CDE928540226DC
:1021C0006020CDE92C652A9028200727CDE92E50E4
:1021D000CDE93076329622A8FFF7A4F80F2033908D
:1021E0000320CDE934043694042133A83794FEF754
:1021F00093FF0E4800902094A8061B901820CDE96C
:10220000025010941594019528050E94CDE90660AE
:10221000CDE904766846FEF7A7FD6802FEF7C4FC28
:10222000FEF79AFD39B0F0BD001002408520010094
:102230000D48016841F4700101600C48016841F0EB
:1022400001010160002181600268094B1A400260AF
:102250008214C260026822F4802202608161024915
:10226000C00380390860704788ED00E0001002402C
:10227000FFFFF6EA90F82410C90706D001684A6803
:10228000836A22F400321A434A6090F824108907C6
:1022900006D501684A68C36A22F480321A434A604C
:1022A00090F82410490706D501684A68036B22F4A8
:1022B00080221A434A6090F82410090706D5016865
:1022C0004A68436B22F400421A434A6090F8241093
:1022D000C90606D501688A68836B22F480521A43C6
:1022E0008A6090F82410890606D501688A68C36B55
:1022F00022F400521A438A6090F82410490611D53E
:1023000001684A68036C22F480121A434A60016C27
:10231000B1F5801F06D101684A68436C22F4C002FF
:102320001A434A6090F82410090606D501684A68E5
:10233000806C22F4002202434A607047F8B5002600
:102340000446C667FEF7DCF90546206800686FF0B2
:102350007E47000708D52B4600224FF40011204687
:10236000009700F067F960B92068006840070AD557
:102370002B4600224FF480012046009700F05AF9C6
:1023800008B10320F8BD20206067A06784F8706062
:102390000020F8BD2DE9F0410546016880682B69F1
:1023A000EC6918436B69002723431843954A0B686F
:1023B000954C234003430B6028684168EB6821F487
:1023C0004051194341602968A869914201D02B6AA4
:1023D00018438B6823F4306303438B608B4B29686D
:1023E0008B4899420DD1D0F8880010F0030006D038
:1023F000012868D0022864D0032851D165E0012467
:102400004FE0844B99420BD1D0F8880010F00C00BB
:1024100055D0042857D0082853D00C2840D154E078
:102420007D4B99420BD1D0F8880010F0300046D097
:10243000102848D0202844D0302831D145E0774BAF
:1024400099420BD1D0F8880010F0C00037D0402856
:1024500039D0802835D0C02822D136E0704B99423F
:102460000ED1D0F8880010F4407028D0B0F5807FED
:1024700029D0B0F5007F24D0B0F5407F10D124E002
:1024800091420DD1D0F8880010F4406017D0B0F51B
:10249000806F18D0B0F5006F13D0B0F5406F14D036
:1024A0001024604B00264FF40040914245D174B196
:1024B000022C0FD0042C0FD0082C18D10FE00024D0
:1024C000EFE70224EDE70424EBE70824E9E7FEF751
:1024D000B3FE03E0184602E0FEF7D2FEA8B36A6836
:1024E00002EB4201814202D8B0EB023F01D9012741
:1024F00075E0DFF834815CB1022C0CD0042C13D0D1
:10250000082CF4D150082105401846F1000105E0DF
:10251000FEF792FE0AE050084449F5E70023FDF774
:102520004FFEA0F5407156E0FEF7AAFE6A68010E64
:102530000302500818187141F0E7E9694FF6EF7887
:1025400081422FD1092CD2D200E048E0DFE804F02C
:1025500006092005230505052600C8E7FEF76CFEE1
:1025600001E0FEF77BFE4100D5F8040001EB5001CD
:10257000B1FBF0F080B2A0F110014145B7D84FF6A1
:10258000F0710140C0F3420001432868C16026E0B9
:1025900027496868EAE7FEF773FEE4E74FF4803105
:1025A0006868E3E7092CA2D2DFE804F006091E05FB
:1025B0002205050525009AE7FEF73EFE01E0FEF73D
:1025C0004DFE0146686801EB500100BFB1FBF0F021
:1025D00080B2A0F11001414589D82968C8602E66F3
:1025E00038466E66BDE8F081686803EB5001EDE7A0
:1025F000FEF746FEE5E7696800EB5100B0FBF1F03D
:10260000E6E7000000800040F369FFEF003801407A
:10261000001002400044004000480040004C0040D0
:10262000005000400024F400FFFC0F00000024F4E0
:102630000048E8012DE9F041984617460E46044649
:10264000069D08E0681C06D0FEF75AF8A0EB0800CB
:10265000A8420BD855B12068C06936EA000017D0EF
:102660000020B842EED00020BDE8F081206801686B
:1026700021F4D07101602068816821F0010181603E
:1026800020206067A067002084F870000320EBE73B
:102690000120E6E770B5044606990A9D0D980129C8
:1026A0000CD0E06840F04000E060204600F022F8E6
:1026B000A16BD5B121F48031A16370BDA16B21F470
:1026C0008031A163E1680A4A1140E160E16821F4C8
:1026D0004011E160012803D1E06840F48010E0601F
:1026E0002046BDE8704000F005B841F48031E3E7D2
:1026F000BFFFBDFF01220C4902E0521C8A420BD8E9
:102700000369002BF9DA026942F001020261012239
:1027100004E0521C8A4201D9032070470369DB0799
:10272000F7D1002070470000400D030010B5D0F82D
:10273000041841F00201C0F804180320FDF7D6FE8A
:10274000002010BD2DE9F04F00250E460446DDF8AF
:1027500030B0109F2846294604EB8002C2F80411CD
:10276000401C0F28F8D32046A06B57B340F400124A
:10277000A26308468846C4F8000ED4F80018204624
:10278000C4F80018D4F8001841F00301C4F8001888
:10279000102100F095F800B10125204600F080F8E6
:1027A00000B101254046C4F81088C4F81488C4F864
:1027B0001C8800214FF000694FF0904A4FF67F339C
:1027C00021E020F40012A263206840F04002226061
:1027D000206840F080022260CBE700BF04EB41128A
:1027E000D2F800C9BCF1000F06DA11B1C2F800A995
:1027F00004E0C4F8009901E0C2F80009C2F8100929
:10280000C2F80839491C8E42E8D8002115E000BF03
:1028100004EB4112D2F800CBBCF1000F06DA11B183
:10282000C2F800AB04E0C4F8009B01E0C2F8000B62
:10283000C2F8100BC2F8083B491C8E42E8D8D4F805
:10284000101821F48072C4F81028A0616FF0804045
:102850006061A06940F01000A061A06909490843C7
:10286000A061BBF1000F03D0A06940F00800A06197
:10287000012F03D1A06904490843A061284600F054
:1028800005B8000000383C800400004030BCBDE8C2
:10289000C08F816821F00101816000207047000035
:1028A000002110220261054A491C914201D90320EE
:1028B00070470369DB06F7D400207047400D030022
:1028C0000022202343EA811101610549521C8A42FA
:1028D00001D90320704703699B06F7D40020704795
:1028E000400D030010B5C26822F0C042C260012949
:1028F00002D029B1012010BDC16841F0005102E0B1
:10290000C16841F08041C1603220FDF7EFFD002039
:1029100010BDFEE70907090E002804DB00F1E020E6
:1029200080F80014704700F00F0000F1E02080F8FC
:10293000141D704702E008C8121F08C1002AFAD10E
:1029400070477047002001E001C1121F002AFBD12F
:1029500070470000FDF7C6FFFFF714FCFFF7B4F85F
:10296000FFF798F8FFF7E8F90D480C4901220160DC
:10297000FF21C0E901120021C0E903124161816118
:10298000FEF75EF9FFF7FAF9FFF718FAFFF736FAE4
:10299000FFF74AFAFFF75EFAFEE70000001000A01A
:1029A0009C00002000000000000000000102030461
:1029B00006070809A0860100400D0300801A0600E2
:1029C00000350C0040420F0080841E0000093D00CD
:1029D00000127A000024F40000366E010048E8017D
:1029E000006CDC0200000000010203040C2A000855
:1029F000000000201800000034290008242A0008E4
:102A000018000020B80A0000442900080000000057
:102A100000000000100000000100000000000000A5
:042A200000093D006C
:040000050800018965
:00000001FF
